{
  "_format": "hh-sol-artifact-1",
  "contractName": "YiSinEBook",
  "sourceName": "contracts/ebookRentNFT.sol",
  "abi": [
    {
      "inputs": [
        {
          "internalType": "address",
          "name": "initialOwner",
          "type": "address"
        }
      ],
      "stateMutability": "nonpayable",
      "type": "constructor"
    },
    {
      "inputs": [
        {
          "internalType": "address",
          "name": "sender",
          "type": "address"
        },
        {
          "internalType": "uint256",
          "name": "balance",
          "type": "uint256"
        },
        {
          "internalType": "uint256",
          "name": "needed",
          "type": "uint256"
        },
        {
          "internalType": "uint256",
          "name": "tokenId",
          "type": "uint256"
        }
      ],
      "name": "ERC1155InsufficientBalance",
      "type": "error"
    },
    {
      "inputs": [
        {
          "internalType": "address",
          "name": "approver",
          "type": "address"
        }
      ],
      "name": "ERC1155InvalidApprover",
      "type": "error"
    },
    {
      "inputs": [
        {
          "internalType": "uint256",
          "name": "idsLength",
          "type": "uint256"
        },
        {
          "internalType": "uint256",
          "name": "valuesLength",
          "type": "uint256"
        }
      ],
      "name": "ERC1155InvalidArrayLength",
      "type": "error"
    },
    {
      "inputs": [
        {
          "internalType": "address",
          "name": "operator",
          "type": "address"
        }
      ],
      "name": "ERC1155InvalidOperator",
      "type": "error"
    },
    {
      "inputs": [
        {
          "internalType": "address",
          "name": "receiver",
          "type": "address"
        }
      ],
      "name": "ERC1155InvalidReceiver",
      "type": "error"
    },
    {
      "inputs": [
        {
          "internalType": "address",
          "name": "sender",
          "type": "address"
        }
      ],
      "name": "ERC1155InvalidSender",
      "type": "error"
    },
    {
      "inputs": [
        {
          "internalType": "address",
          "name": "operator",
          "type": "address"
        },
        {
          "internalType": "address",
          "name": "owner",
          "type": "address"
        }
      ],
      "name": "ERC1155MissingApprovalForAll",
      "type": "error"
    },
    {
      "inputs": [],
      "name": "EnforcedPause",
      "type": "error"
    },
    {
      "inputs": [],
      "name": "ExpectedPause",
      "type": "error"
    },
    {
      "inputs": [
        {
          "internalType": "address",
          "name": "owner",
          "type": "address"
        }
      ],
      "name": "OwnableInvalidOwner",
      "type": "error"
    },
    {
      "inputs": [
        {
          "internalType": "address",
          "name": "account",
          "type": "address"
        }
      ],
      "name": "OwnableUnauthorizedAccount",
      "type": "error"
    },
    {
      "inputs": [],
      "name": "ReentrancyGuardReentrantCall",
      "type": "error"
    },
    {
      "anonymous": false,
      "inputs": [
        {
          "indexed": true,
          "internalType": "address",
          "name": "account",
          "type": "address"
        },
        {
          "indexed": true,
          "internalType": "address",
          "name": "operator",
          "type": "address"
        },
        {
          "indexed": false,
          "internalType": "bool",
          "name": "approved",
          "type": "bool"
        }
      ],
      "name": "ApprovalForAll",
      "type": "event"
    },
    {
      "anonymous": false,
      "inputs": [
        {
          "indexed": true,
          "internalType": "address",
          "name": "previousOwner",
          "type": "address"
        },
        {
          "indexed": true,
          "internalType": "address",
          "name": "newOwner",
          "type": "address"
        }
      ],
      "name": "OwnershipTransferred",
      "type": "event"
    },
    {
      "anonymous": false,
      "inputs": [
        {
          "indexed": false,
          "internalType": "address",
          "name": "account",
          "type": "address"
        }
      ],
      "name": "Paused",
      "type": "event"
    },
    {
      "anonymous": false,
      "inputs": [
        {
          "indexed": true,
          "internalType": "address",
          "name": "operator",
          "type": "address"
        },
        {
          "indexed": true,
          "internalType": "address",
          "name": "from",
          "type": "address"
        },
        {
          "indexed": true,
          "internalType": "address",
          "name": "to",
          "type": "address"
        },
        {
          "indexed": false,
          "internalType": "uint256[]",
          "name": "ids",
          "type": "uint256[]"
        },
        {
          "indexed": false,
          "internalType": "uint256[]",
          "name": "values",
          "type": "uint256[]"
        }
      ],
      "name": "TransferBatch",
      "type": "event"
    },
    {
      "anonymous": false,
      "inputs": [
        {
          "indexed": true,
          "internalType": "address",
          "name": "operator",
          "type": "address"
        },
        {
          "indexed": true,
          "internalType": "address",
          "name": "from",
          "type": "address"
        },
        {
          "indexed": true,
          "internalType": "address",
          "name": "to",
          "type": "address"
        },
        {
          "indexed": false,
          "internalType": "uint256",
          "name": "id",
          "type": "uint256"
        },
        {
          "indexed": false,
          "internalType": "uint256",
          "name": "value",
          "type": "uint256"
        }
      ],
      "name": "TransferSingle",
      "type": "event"
    },
    {
      "anonymous": false,
      "inputs": [
        {
          "indexed": false,
          "internalType": "string",
          "name": "value",
          "type": "string"
        },
        {
          "indexed": true,
          "internalType": "uint256",
          "name": "id",
          "type": "uint256"
        }
      ],
      "name": "URI",
      "type": "event"
    },
    {
      "anonymous": false,
      "inputs": [
        {
          "indexed": false,
          "internalType": "address",
          "name": "account",
          "type": "address"
        }
      ],
      "name": "Unpaused",
      "type": "event"
    },
    {
      "inputs": [
        {
          "internalType": "address",
          "name": "account",
          "type": "address"
        },
        {
          "internalType": "uint256",
          "name": "id",
          "type": "uint256"
        }
      ],
      "name": "balanceOf",
      "outputs": [
        {
          "internalType": "uint256",
          "name": "",
          "type": "uint256"
        }
      ],
      "stateMutability": "view",
      "type": "function"
    },
    {
      "inputs": [
        {
          "internalType": "address[]",
          "name": "accounts",
          "type": "address[]"
        },
        {
          "internalType": "uint256[]",
          "name": "ids",
          "type": "uint256[]"
        }
      ],
      "name": "balanceOfBatch",
      "outputs": [
        {
          "internalType": "uint256[]",
          "name": "",
          "type": "uint256[]"
        }
      ],
      "stateMutability": "view",
      "type": "function"
    },
    {
      "inputs": [
        {
          "internalType": "uint256",
          "name": "",
          "type": "uint256"
        }
      ],
      "name": "bookInfos",
      "outputs": [
        {
          "internalType": "address",
          "name": "writer",
          "type": "address"
        },
        {
          "internalType": "uint256",
          "name": "supplyAmount",
          "type": "uint256"
        },
        {
          "internalType": "uint256",
          "name": "rentPrice",
          "type": "uint256"
        },
        {
          "internalType": "uint256",
          "name": "maxRentTime",
          "type": "uint256"
        }
      ],
      "stateMutability": "view",
      "type": "function"
    },
    {
      "inputs": [
        {
          "internalType": "uint256",
          "name": "",
          "type": "uint256"
        }
      ],
      "name": "booksOnRent",
      "outputs": [
        {
          "internalType": "uint256",
          "name": "",
          "type": "uint256"
        }
      ],
      "stateMutability": "view",
      "type": "function"
    },
    {
      "inputs": [
        {
          "internalType": "uint256",
          "name": "bookId",
          "type": "uint256"
        }
      ],
      "name": "burnEBook",
      "outputs": [],
      "stateMutability": "nonpayable",
      "type": "function"
    },
    {
      "inputs": [
        {
          "internalType": "bytes",
          "name": "checkData",
          "type": "bytes"
        }
      ],
      "name": "checkUpkeep",
      "outputs": [
        {
          "internalType": "bool",
          "name": "upkeepNeeded",
          "type": "bool"
        },
        {
          "internalType": "bytes",
          "name": "performData",
          "type": "bytes"
        }
      ],
      "stateMutability": "view",
      "type": "function"
    },
    {
      "inputs": [
        {
          "internalType": "address",
          "name": "signer",
          "type": "address"
        },
        {
          "internalType": "uint256",
          "name": "id",
          "type": "uint256"
        }
      ],
      "name": "isAddressHaveTokenId",
      "outputs": [
        {
          "internalType": "bool",
          "name": "",
          "type": "bool"
        }
      ],
      "stateMutability": "view",
      "type": "function"
    },
    {
      "inputs": [
        {
          "internalType": "address",
          "name": "account",
          "type": "address"
        },
        {
          "internalType": "address",
          "name": "operator",
          "type": "address"
        }
      ],
      "name": "isApprovedForAll",
      "outputs": [
        {
          "internalType": "bool",
          "name": "",
          "type": "bool"
        }
      ],
      "stateMutability": "view",
      "type": "function"
    },
    {
      "inputs": [],
      "name": "owner",
      "outputs": [
        {
          "internalType": "address",
          "name": "",
          "type": "address"
        }
      ],
      "stateMutability": "view",
      "type": "function"
    },
    {
      "inputs": [],
      "name": "pause",
      "outputs": [],
      "stateMutability": "nonpayable",
      "type": "function"
    },
    {
      "inputs": [],
      "name": "paused",
      "outputs": [
        {
          "internalType": "bool",
          "name": "",
          "type": "bool"
        }
      ],
      "stateMutability": "view",
      "type": "function"
    },
    {
      "inputs": [
        {
          "internalType": "bytes",
          "name": "performData",
          "type": "bytes"
        }
      ],
      "name": "performUpkeep",
      "outputs": [],
      "stateMutability": "nonpayable",
      "type": "function"
    },
    {
      "inputs": [],
      "name": "renounceOwnership",
      "outputs": [],
      "stateMutability": "nonpayable",
      "type": "function"
    },
    {
      "inputs": [
        {
          "internalType": "uint256",
          "name": "bookId",
          "type": "uint256"
        },
        {
          "internalType": "uint256",
          "name": "rentTime",
          "type": "uint256"
        }
      ],
      "name": "rentBook",
      "outputs": [],
      "stateMutability": "payable",
      "type": "function"
    },
    {
      "inputs": [
        {
          "internalType": "uint256",
          "name": "",
          "type": "uint256"
        },
        {
          "internalType": "uint256",
          "name": "",
          "type": "uint256"
        }
      ],
      "name": "rentInfos",
      "outputs": [
        {
          "internalType": "address",
          "name": "renter",
          "type": "address"
        },
        {
          "internalType": "uint256",
          "name": "tokenId",
          "type": "uint256"
        },
        {
          "internalType": "uint256",
          "name": "endTime",
          "type": "uint256"
        }
      ],
      "stateMutability": "view",
      "type": "function"
    },
    {
      "inputs": [
        {
          "internalType": "address",
          "name": "",
          "type": "address"
        },
        {
          "internalType": "uint256",
          "name": "",
          "type": "uint256"
        }
      ],
      "name": "renterRentInfoIndex",
      "outputs": [
        {
          "internalType": "uint256",
          "name": "",
          "type": "uint256"
        }
      ],
      "stateMutability": "view",
      "type": "function"
    },
    {
      "inputs": [
        {
          "internalType": "uint256",
          "name": "bookId",
          "type": "uint256"
        }
      ],
      "name": "returnBook",
      "outputs": [],
      "stateMutability": "nonpayable",
      "type": "function"
    },
    {
      "inputs": [
        {
          "internalType": "address",
          "name": "from",
          "type": "address"
        },
        {
          "internalType": "address",
          "name": "to",
          "type": "address"
        },
        {
          "internalType": "uint256[]",
          "name": "ids",
          "type": "uint256[]"
        },
        {
          "internalType": "uint256[]",
          "name": "values",
          "type": "uint256[]"
        },
        {
          "internalType": "bytes",
          "name": "data",
          "type": "bytes"
        }
      ],
      "name": "safeBatchTransferFrom",
      "outputs": [],
      "stateMutability": "nonpayable",
      "type": "function"
    },
    {
      "inputs": [
        {
          "internalType": "address",
          "name": "from",
          "type": "address"
        },
        {
          "internalType": "address",
          "name": "to",
          "type": "address"
        },
        {
          "internalType": "uint256",
          "name": "id",
          "type": "uint256"
        },
        {
          "internalType": "uint256",
          "name": "value",
          "type": "uint256"
        },
        {
          "internalType": "bytes",
          "name": "data",
          "type": "bytes"
        }
      ],
      "name": "safeTransferFrom",
      "outputs": [],
      "stateMutability": "nonpayable",
      "type": "function"
    },
    {
      "inputs": [
        {
          "internalType": "address",
          "name": "operator",
          "type": "address"
        },
        {
          "internalType": "bool",
          "name": "approved",
          "type": "bool"
        }
      ],
      "name": "setApprovalForAll",
      "outputs": [],
      "stateMutability": "nonpayable",
      "type": "function"
    },
    {
      "inputs": [
        {
          "internalType": "string",
          "name": "newuri",
          "type": "string"
        }
      ],
      "name": "setURI",
      "outputs": [],
      "stateMutability": "nonpayable",
      "type": "function"
    },
    {
      "inputs": [
        {
          "internalType": "bytes4",
          "name": "interfaceId",
          "type": "bytes4"
        }
      ],
      "name": "supportsInterface",
      "outputs": [
        {
          "internalType": "bool",
          "name": "",
          "type": "bool"
        }
      ],
      "stateMutability": "view",
      "type": "function"
    },
    {
      "inputs": [],
      "name": "totalSupplyBook",
      "outputs": [
        {
          "internalType": "uint256",
          "name": "",
          "type": "uint256"
        }
      ],
      "stateMutability": "view",
      "type": "function"
    },
    {
      "inputs": [
        {
          "internalType": "address",
          "name": "newOwner",
          "type": "address"
        }
      ],
      "name": "transferOwnership",
      "outputs": [],
      "stateMutability": "nonpayable",
      "type": "function"
    },
    {
      "inputs": [],
      "name": "unpause",
      "outputs": [],
      "stateMutability": "nonpayable",
      "type": "function"
    },
    {
      "inputs": [
        {
          "internalType": "uint256",
          "name": "bookAmount",
          "type": "uint256"
        },
        {
          "internalType": "address",
          "name": "uploader",
          "type": "address"
        },
        {
          "internalType": "uint256",
          "name": "price",
          "type": "uint256"
        },
        {
          "internalType": "uint256",
          "name": "time",
          "type": "uint256"
        }
      ],
      "name": "uploadEBook",
      "outputs": [],
      "stateMutability": "nonpayable",
      "type": "function"
    },
    {
      "inputs": [
        {
          "internalType": "uint256",
          "name": "",
          "type": "uint256"
        }
      ],
      "name": "uri",
      "outputs": [
        {
          "internalType": "string",
          "name": "",
          "type": "string"
        }
      ],
      "stateMutability": "view",
      "type": "function"
    }
  ],
  "bytecode": "0x608060405260006005553480156200001657600080fd5b50604051620049e3380380620049e383398181016040528101906200003c919062000255565b80604051806020016040528060008152506200005e816200011060201b60201c565b506000600360006101000a81548160ff021916908315150217905550600073ffffffffffffffffffffffffffffffffffffffff168173ffffffffffffffffffffffffffffffffffffffff1603620000ef5760006040517f1e4fbdf7000000000000000000000000000000000000000000000000000000008152600401620000e6919062000298565b60405180910390fd5b62000100816200012560201b60201c565b5060016004819055505062000616565b80600290816200012191906200052f565b5050565b6000600360019054906101000a900473ffffffffffffffffffffffffffffffffffffffff16905081600360016101000a81548173ffffffffffffffffffffffffffffffffffffffff021916908373ffffffffffffffffffffffffffffffffffffffff1602179055508173ffffffffffffffffffffffffffffffffffffffff168173ffffffffffffffffffffffffffffffffffffffff167f8be0079c531659141344cd1fd0a4f28419497f9722a3daafe3b4186f6b6457e060405160405180910390a35050565b600080fd5b600073ffffffffffffffffffffffffffffffffffffffff82169050919050565b60006200021d82620001f0565b9050919050565b6200022f8162000210565b81146200023b57600080fd5b50565b6000815190506200024f8162000224565b92915050565b6000602082840312156200026e576200026d620001eb565b5b60006200027e848285016200023e565b91505092915050565b620002928162000210565b82525050565b6000602082019050620002af600083018462000287565b92915050565b600081519050919050565b7f4e487b7100000000000000000000000000000000000000000000000000000000600052604160045260246000fd5b7f4e487b7100000000000000000000000000000000000000000000000000000000600052602260045260246000fd5b600060028204905060018216806200033757607f821691505b6020821081036200034d576200034c620002ef565b5b50919050565b60008190508160005260206000209050919050565b60006020601f8301049050919050565b600082821b905092915050565b600060088302620003b77fffffffffffffffffffffffffffffffffffffffffffffffffffffffffffffffff8262000378565b620003c3868362000378565b95508019841693508086168417925050509392505050565b6000819050919050565b6000819050919050565b6000620004106200040a6200040484620003db565b620003e5565b620003db565b9050919050565b6000819050919050565b6200042c83620003ef565b620004446200043b8262000417565b84845462000385565b825550505050565b600090565b6200045b6200044c565b6200046881848462000421565b505050565b5b8181101562000490576200048460008262000451565b6001810190506200046e565b5050565b601f821115620004df57620004a98162000353565b620004b48462000368565b81016020851015620004c4578190505b620004dc620004d38562000368565b8301826200046d565b50505b505050565b600082821c905092915050565b60006200050460001984600802620004e4565b1980831691505092915050565b60006200051f8383620004f1565b9150826002028217905092915050565b6200053a82620002b5565b67ffffffffffffffff811115620005565762000555620002c0565b5b6200056282546200031e565b6200056f82828562000494565b600060209050601f831160018114620005a7576000841562000592578287015190505b6200059e858262000511565b8655506200060e565b601f198416620005b78662000353565b60005b82811015620005e157848901518255600182019150602085019450602081019050620005ba565b86831015620006015784890151620005fd601f891682620004f1565b8355505b6001600288020188555050505b505050505050565b6143bd80620006266000396000f3fe60806040526004361061019b5760003560e01c8063715018a6116100ec578063bcb3e9ae1161008a578063d43a427611610064578063d43a4276146105ed578063e985e9c514610609578063f242432a14610646578063f2fde38b1461066f5761019b565b8063bcb3e9ae1461054a578063ca5140c914610587578063d42881de146105b05761019b565b80638da5cb5b116100c65780638da5cb5b146104a25780638e109a27146104cd578063a22cb465146104f8578063a358aaab146105215761019b565b8063715018a6146104355780638456cb591461044c5780638aa087f1146104635761019b565b80633f4ba83a116101595780634e1273f4116101335780634e1273f4146103525780635c975abb1461038f57806361e5b62c146103ba5780636e04ff0d146103f75761019b565b80633f4ba83a146102e95780634585e33b146103005780634c019c38146103295761019b565b8062fdd58e146101a057806301ffc9a7146101dd57806302fe53051461021a5780630e89341c146102435780630fc5fc4a146102805780632eb2c2d6146102c0575b600080fd5b3480156101ac57600080fd5b506101c760048036038101906101c29190612ce8565b610698565b6040516101d49190612d37565b60405180910390f35b3480156101e957600080fd5b5061020460048036038101906101ff9190612daa565b6106f2565b6040516102119190612df2565b60405180910390f35b34801561022657600080fd5b50610241600480360381019061023c9190612f53565b6107d4565b005b34801561024f57600080fd5b5061026a60048036038101906102659190612f9c565b6107e8565b6040516102779190613048565b60405180910390f35b34801561028c57600080fd5b506102a760048036038101906102a29190612f9c565b61087c565b6040516102b79493929190613079565b60405180910390f35b3480156102cc57600080fd5b506102e760048036038101906102e29190613227565b6108cc565b005b3480156102f557600080fd5b506102fe610974565b005b34801561030c57600080fd5b5061032760048036038101906103229190613351565b610986565b005b34801561033557600080fd5b50610350600480360381019061034b9190612f9c565b610a84565b005b34801561035e57600080fd5b5061037960048036038101906103749190613461565b610b50565b6040516103869190613597565b60405180910390f35b34801561039b57600080fd5b506103a4610c59565b6040516103b19190612df2565b60405180910390f35b3480156103c657600080fd5b506103e160048036038101906103dc9190612ce8565b610c70565b6040516103ee9190612df2565b60405180910390f35b34801561040357600080fd5b5061041e60048036038101906104199190613351565b610c96565b60405161042c92919061360e565b60405180910390f35b34801561044157600080fd5b5061044a610dd8565b005b34801561045857600080fd5b50610461610dec565b005b34801561046f57600080fd5b5061048a6004803603810190610485919061363e565b610dfe565b6040516104999392919061367e565b60405180910390f35b3480156104ae57600080fd5b506104b7610e65565b6040516104c491906136b5565b60405180910390f35b3480156104d957600080fd5b506104e2610e8f565b6040516104ef9190612d37565b60405180910390f35b34801561050457600080fd5b5061051f600480360381019061051a91906136fc565b610e95565b005b34801561052d57600080fd5b506105486004803603810190610543919061373c565b610eab565b005b34801561055657600080fd5b50610571600480360381019061056c9190612ce8565b610fa2565b60405161057e9190612d37565b60405180910390f35b34801561059357600080fd5b506105ae60048036038101906105a99190612f9c565b610fc7565b005b3480156105bc57600080fd5b506105d760048036038101906105d29190612f9c565b6111f7565b6040516105e49190612d37565b60405180910390f35b6106076004803603810190610602919061363e565b61120f565b005b34801561061557600080fd5b50610630600480360381019061062b91906137a3565b61164c565b60405161063d9190612df2565b60405180910390f35b34801561065257600080fd5b5061066d600480360381019061066891906137e3565b6116e0565b005b34801561067b57600080fd5b506106966004803603810190610691919061387a565b611788565b005b600080600083815260200190815260200160002060008473ffffffffffffffffffffffffffffffffffffffff1673ffffffffffffffffffffffffffffffffffffffff16815260200190815260200160002054905092915050565b60007fd9b67a26000000000000000000000000000000000000000000000000000000007bffffffffffffffffffffffffffffffffffffffffffffffffffffffff1916827bffffffffffffffffffffffffffffffffffffffffffffffffffffffff191614806107bd57507f0e89341c000000000000000000000000000000000000000000000000000000007bffffffffffffffffffffffffffffffffffffffffffffffffffffffff1916827bffffffffffffffffffffffffffffffffffffffffffffffffffffffff1916145b806107cd57506107cc8261180e565b5b9050919050565b6107dc611878565b6107e5816118ff565b50565b6060600280546107f7906138d6565b80601f0160208091040260200160405190810160405280929190818152602001828054610823906138d6565b80156108705780601f1061084557610100808354040283529160200191610870565b820191906000526020600020905b81548152906001019060200180831161085357829003601f168201915b50505050509050919050565b60066020528060005260406000206000915090508060000160009054906101000a900473ffffffffffffffffffffffffffffffffffffffff16908060010154908060020154908060030154905084565b60006108d6611912565b90508073ffffffffffffffffffffffffffffffffffffffff168673ffffffffffffffffffffffffffffffffffffffff161415801561091b5750610919868261164c565b155b1561095f5780866040517fe237d922000000000000000000000000000000000000000000000000000000008152600401610956929190613907565b60405180910390fd5b61096c868686868661191a565b505050505050565b61097c611878565b610984611a12565b565b6000808383810190610998919061363e565b915091506007600083815260200190815260200160002081815481106109c1576109c0613930565b5b90600052602060002090600302016002015442118015610a1857506000600760008481526020019081526020016000208281548110610a0357610a02613930565b5b90600052602060002090600302016002015414155b15610a7e57610a7d82600760008581526020019081526020016000208381548110610a4657610a45613930565b5b906000526020600020906003020160000160009054906101000a900473ffffffffffffffffffffffffffffffffffffffff16611a75565b5b50505050565b610a8c611878565b610aad30826006600085815260200190815260200160002060010154611dd3565b6001600a600083815260200190815260200160002060006101000a81548160ff02191690831515021790555060066000828152602001908152602001600020600080820160006101000a81549073ffffffffffffffffffffffffffffffffffffffff02191690556001820160009055600282016000905560038201600090555050600760008281526020019081526020016000206000610b4d9190612bce565b50565b60608151835114610b9c57815183516040517f5b059991000000000000000000000000000000000000000000000000000000008152600401610b9392919061395f565b60405180910390fd5b6000835167ffffffffffffffff811115610bb957610bb8612e28565b5b604051908082528060200260200182016040528015610be75781602001602082028036833780820191505090505b50905060005b8451811015610c4e57610c24610c0c8287611e7a90919063ffffffff16565b610c1f8387611e8e90919063ffffffff16565b610698565b828281518110610c3757610c36613930565b5b602002602001018181525050806001019050610bed565b508091505092915050565b6000600360009054906101000a900460ff16905090565b600080610c7d8484610698565b03610c8b5760009050610c90565b600190505b92915050565b600060606000915060005b84849050811015610dd057600085858390602085610cbf91906139b7565b92610ccc939291906139f5565b810190610cd99190612f9c565b905060005b6008600083815260200190815260200160002054811015610dba57600760008381526020019081526020016000208181548110610d1e57610d1d613930565b5b9060005260206000209060030201600201544210158015610d7657506000600760008481526020019081526020016000208281548110610d6157610d60613930565b5b90600052602060002090600302016002015414155b15610da857600194508181604051602001610d9292919061395f565b6040516020818303038152906040529350610dba565b84610dba578080600101915050610cde565b5050602081610dc991906139b7565b9050610ca1565b509250929050565b610de0611878565b610dea6000611ea2565b565b610df4611878565b610dfc611f68565b565b60076020528160005260406000208181548110610e1a57600080fd5b9060005260206000209060030201600091509150508060000160009054906101000a900473ffffffffffffffffffffffffffffffffffffffff16908060010154908060020154905083565b6000600360019054906101000a900473ffffffffffffffffffffffffffffffffffffffff16905090565b60055481565b610ea7610ea0611912565b8383611fcb565b5050565b610eb3611878565b610ed030600554866040518060200160405280600081525061213b565b60405180608001604052808473ffffffffffffffffffffffffffffffffffffffff1681526020018581526020018381526020018281525060066000600554815260200190815260200160002060008201518160000160006101000a81548173ffffffffffffffffffffffffffffffffffffffff021916908373ffffffffffffffffffffffffffffffffffffffff16021790555060208201518160010155604082015181600201556060820151816003015590505060056000815480929190610f9790613a30565b919050555050505050565b6009602052816000526040600020602052806000526040600020600091509150505481565b610fcf6121d4565b6000610fdb3383610698565b1161101b576040517f08c379a000000000000000000000000000000000000000000000000000000000815260040161101290613ac4565b60405180910390fd5b600073ffffffffffffffffffffffffffffffffffffffff163373ffffffffffffffffffffffffffffffffffffffff160361108a576040517f08c379a000000000000000000000000000000000000000000000000000000000815260040161108190613b30565b60405180910390fd5b3373ffffffffffffffffffffffffffffffffffffffff1660076000838152602001908152602001600020600960003373ffffffffffffffffffffffffffffffffffffffff1673ffffffffffffffffffffffffffffffffffffffff1681526020019081526020016000206000848152602001908152602001600020548154811061111657611115613930565b5b906000526020600020906003020160000160009054906101000a900473ffffffffffffffffffffffffffffffffffffffff1673ffffffffffffffffffffffffffffffffffffffff161461119e576040517f08c379a000000000000000000000000000000000000000000000000000000000815260040161119590613b9c565b60405180910390fd5b60055481106111e2576040517f08c379a00000000000000000000000000000000000000000000000000000000081526004016111d990613c08565b60405180910390fd5b6111ec8133611a75565b6111f461221a565b50565b60086020528060005260406000206000915090505481565b6112176121d4565b600a600083815260200190815260200160002060009054906101000a900460ff1615611278576040517f08c379a000000000000000000000000000000000000000000000000000000000815260040161126f90613c74565b60405180910390fd5b600073ffffffffffffffffffffffffffffffffffffffff163373ffffffffffffffffffffffffffffffffffffffff16036112e7576040517f08c379a00000000000000000000000000000000000000000000000000000000081526004016112de90613ce0565b60405180910390fd5b60006112f33084610698565b11611333576040517f08c379a000000000000000000000000000000000000000000000000000000000815260040161132a90613d72565b60405180910390fd5b600061133f3384610698565b1461137f576040517f08c379a000000000000000000000000000000000000000000000000000000000815260040161137690613dde565b60405180910390fd5b611389333061164c565b6113c8576040517f08c379a00000000000000000000000000000000000000000000000000000000081526004016113bf90613e4a565b60405180910390fd5b60066000838152602001908152602001600020600201543414611420576040517f08c379a000000000000000000000000000000000000000000000000000000000815260040161141790613eb6565b60405180910390fd5b6005548210611464576040517f08c379a000000000000000000000000000000000000000000000000000000000815260040161145b90613c08565b60405180910390fd5b60066000838152602001908152602001600020600301548111156114bd576040517f08c379a00000000000000000000000000000000000000000000000000000000081526004016114b490613f22565b60405180910390fd5b6007600083815260200190815260200160002060405180606001604052803373ffffffffffffffffffffffffffffffffffffffff168152602001848152602001428461150991906139b7565b815250908060018154018082558091505060019003906000526020600020906003020160009091909190915060008201518160000160006101000a81548173ffffffffffffffffffffffffffffffffffffffff021916908373ffffffffffffffffffffffffffffffffffffffff160217905550602082015181600101556040820151816002015550506008600083815260200190815260200160002054600960003373ffffffffffffffffffffffffffffffffffffffff1673ffffffffffffffffffffffffffffffffffffffff16815260200190815260200160002060008481526020019081526020016000208190555060086000838152602001908152602001600020600081548092919061161e90613a30565b91905055506116403033846001604051806020016040528060008152506116e0565b61164861221a565b5050565b6000600160008473ffffffffffffffffffffffffffffffffffffffff1673ffffffffffffffffffffffffffffffffffffffff16815260200190815260200160002060008373ffffffffffffffffffffffffffffffffffffffff1673ffffffffffffffffffffffffffffffffffffffff16815260200190815260200160002060009054906101000a900460ff16905092915050565b60006116ea611912565b90508073ffffffffffffffffffffffffffffffffffffffff168673ffffffffffffffffffffffffffffffffffffffff161415801561172f575061172d868261164c565b155b156117735780866040517fe237d92200000000000000000000000000000000000000000000000000000000815260040161176a929190613907565b60405180910390fd5b6117808686868686612224565b505050505050565b611790611878565b600073ffffffffffffffffffffffffffffffffffffffff168173ffffffffffffffffffffffffffffffffffffffff16036118025760006040517f1e4fbdf70000000000000000000000000000000000000000000000000000000081526004016117f991906136b5565b60405180910390fd5b61180b81611ea2565b50565b60007f01ffc9a7000000000000000000000000000000000000000000000000000000007bffffffffffffffffffffffffffffffffffffffffffffffffffffffff1916827bffffffffffffffffffffffffffffffffffffffffffffffffffffffff1916149050919050565b611880611912565b73ffffffffffffffffffffffffffffffffffffffff1661189e610e65565b73ffffffffffffffffffffffffffffffffffffffff16146118fd576118c1611912565b6040517f118cdaa70000000000000000000000000000000000000000000000000000000081526004016118f491906136b5565b60405180910390fd5b565b806002908161190e91906140ee565b5050565b600033905090565b600073ffffffffffffffffffffffffffffffffffffffff168473ffffffffffffffffffffffffffffffffffffffff160361198c5760006040517f57f447ce00000000000000000000000000000000000000000000000000000000815260040161198391906136b5565b60405180910390fd5b600073ffffffffffffffffffffffffffffffffffffffff168573ffffffffffffffffffffffffffffffffffffffff16036119fe5760006040517f01a835140000000000000000000000000000000000000000000000000000000081526004016119f591906136b5565b60405180910390fd5b611a0b858585858561232f565b5050505050565b611a1a6123e1565b6000600360006101000a81548160ff0219169083151502179055507f5db9ee0a495bf2e6ff9c91a7834c1ba4fdd244a5e8aa4e537bd38aeae4b073aa611a5e611912565b604051611a6b91906136b5565b60405180910390a1565b6007600083815260200190815260200160002060016007600085815260200190815260200160002080549050611aab91906141c0565b81548110611abc57611abb613930565b5b906000526020600020906003020160076000848152602001908152602001600020600960008473ffffffffffffffffffffffffffffffffffffffff1673ffffffffffffffffffffffffffffffffffffffff16815260200190815260200160002060008581526020019081526020016000205481548110611b3f57611b3e613930565b5b90600052602060002090600302016000820160009054906101000a900473ffffffffffffffffffffffffffffffffffffffff168160000160006101000a81548173ffffffffffffffffffffffffffffffffffffffff021916908373ffffffffffffffffffffffffffffffffffffffff160217905550600182015481600101556002820154816002015590505060076000838152602001908152602001600020805480611bee57611bed6141f4565b5b6001900381819060005260206000209060030201600080820160006101000a81549073ffffffffffffffffffffffffffffffffffffffff02191690556001820160009055600282016000905550509055600960008273ffffffffffffffffffffffffffffffffffffffff1673ffffffffffffffffffffffffffffffffffffffff1681526020019081526020016000206000838152602001908152602001600020546009600060076000868152602001908152602001600020600960008673ffffffffffffffffffffffffffffffffffffffff1673ffffffffffffffffffffffffffffffffffffffff16815260200190815260200160002060008781526020019081526020016000205481548110611d0857611d07613930565b5b906000526020600020906003020160000160009054906101000a900473ffffffffffffffffffffffffffffffffffffffff1673ffffffffffffffffffffffffffffffffffffffff1673ffffffffffffffffffffffffffffffffffffffff168152602001908152602001600020600084815260200190815260200160002081905550600860008381526020019081526020016000206000815480929190611dad90614223565b9190505550611dcf8130846001604051806020016040528060008152506116e0565b5050565b600073ffffffffffffffffffffffffffffffffffffffff168373ffffffffffffffffffffffffffffffffffffffff1603611e455760006040517f01a83514000000000000000000000000000000000000000000000000000000008152600401611e3c91906136b5565b60405180910390fd5b600080611e528484612421565b91509150611e7385600084846040518060200160405280600081525061232f565b5050505050565b600060208202602084010151905092915050565b600060208202602084010151905092915050565b6000600360019054906101000a900473ffffffffffffffffffffffffffffffffffffffff16905081600360016101000a81548173ffffffffffffffffffffffffffffffffffffffff021916908373ffffffffffffffffffffffffffffffffffffffff1602179055508173ffffffffffffffffffffffffffffffffffffffff168173ffffffffffffffffffffffffffffffffffffffff167f8be0079c531659141344cd1fd0a4f28419497f9722a3daafe3b4186f6b6457e060405160405180910390a35050565b611f70612451565b6001600360006101000a81548160ff0219169083151502179055507f62e78cea01bee320cd4e420270b5ea74000d11b0c9f74754ebdbfc544b05a258611fb4611912565b604051611fc191906136b5565b60405180910390a1565b600073ffffffffffffffffffffffffffffffffffffffff168273ffffffffffffffffffffffffffffffffffffffff160361203d5760006040517fced3e10000000000000000000000000000000000000000000000000000000000815260040161203491906136b5565b60405180910390fd5b80600160008573ffffffffffffffffffffffffffffffffffffffff1673ffffffffffffffffffffffffffffffffffffffff16815260200190815260200160002060008473ffffffffffffffffffffffffffffffffffffffff1673ffffffffffffffffffffffffffffffffffffffff16815260200190815260200160002060006101000a81548160ff0219169083151502179055508173ffffffffffffffffffffffffffffffffffffffff168373ffffffffffffffffffffffffffffffffffffffff167f17307eab39ab6107e8899845ad3d59bd9653f200f220920489ca2b5937696c318360405161212e9190612df2565b60405180910390a3505050565b600073ffffffffffffffffffffffffffffffffffffffff168473ffffffffffffffffffffffffffffffffffffffff16036121ad5760006040517f57f447ce0000000000000000000000000000000000000000000000000000000081526004016121a491906136b5565b60405180910390fd5b6000806121ba8585612421565b915091506121cc60008784848761232f565b505050505050565b600260045403612210576040517f3ee5aeb500000000000000000000000000000000000000000000000000000000815260040160405180910390fd5b6002600481905550565b6001600481905550565b600073ffffffffffffffffffffffffffffffffffffffff168473ffffffffffffffffffffffffffffffffffffffff16036122965760006040517f57f447ce00000000000000000000000000000000000000000000000000000000815260040161228d91906136b5565b60405180910390fd5b600073ffffffffffffffffffffffffffffffffffffffff168573ffffffffffffffffffffffffffffffffffffffff16036123085760006040517f01a835140000000000000000000000000000000000000000000000000000000081526004016122ff91906136b5565b60405180910390fd5b6000806123158585612421565b91509150612326878784848761232f565b50505050505050565b61233b85858585612492565b600073ffffffffffffffffffffffffffffffffffffffff168473ffffffffffffffffffffffffffffffffffffffff16146123da576000612379611912565b905060018451036123c957600061239a600086611e8e90919063ffffffff16565b905060006123b2600086611e8e90919063ffffffff16565b90506123c28389898585896124a4565b50506123d8565b6123d7818787878787612658565b5b505b5050505050565b6123e9610c59565b61241f576040517f8dfc202b00000000000000000000000000000000000000000000000000000000815260040160405180910390fd5b565b60608060405191506001825283602083015260408201905060018152826020820152604081016040529250929050565b612459610c59565b15612490576040517fd93c066500000000000000000000000000000000000000000000000000000000815260040160405180910390fd5b565b61249e8484848461280c565b50505050565b60008473ffffffffffffffffffffffffffffffffffffffff163b1115612650578373ffffffffffffffffffffffffffffffffffffffff1663f23a6e6187878686866040518663ffffffff1660e01b815260040161250595949392919061424c565b6020604051808303816000875af192505050801561254157506040513d601f19601f8201168201806040525081019061253e91906142bb565b60015b6125c5573d8060008114612571576040519150601f19603f3d011682016040523d82523d6000602084013e612576565b606091505b5060008151036125bd57846040517f57f447ce0000000000000000000000000000000000000000000000000000000081526004016125b491906136b5565b60405180910390fd5b805181602001fd5b63f23a6e6160e01b7bffffffffffffffffffffffffffffffffffffffffffffffffffffffff1916817bffffffffffffffffffffffffffffffffffffffffffffffffffffffff19161461264e57846040517f57f447ce00000000000000000000000000000000000000000000000000000000815260040161264591906136b5565b60405180910390fd5b505b505050505050565b60008473ffffffffffffffffffffffffffffffffffffffff163b1115612804578373ffffffffffffffffffffffffffffffffffffffff1663bc197c8187878686866040518663ffffffff1660e01b81526004016126b99594939291906142e8565b6020604051808303816000875af19250505080156126f557506040513d601f19601f820116820180604052508101906126f291906142bb565b60015b612779573d8060008114612725576040519150601f19603f3d011682016040523d82523d6000602084013e61272a565b606091505b50600081510361277157846040517f57f447ce00000000000000000000000000000000000000000000000000000000815260040161276891906136b5565b60405180910390fd5b805181602001fd5b63bc197c8160e01b7bffffffffffffffffffffffffffffffffffffffffffffffffffffffff1916817bffffffffffffffffffffffffffffffffffffffffffffffffffffffff19161461280257846040517f57f447ce0000000000000000000000000000000000000000000000000000000081526004016127f991906136b5565b60405180910390fd5b505b505050505050565b612814612451565b61282084848484612826565b50505050565b805182511461287057815181516040517f5b05999100000000000000000000000000000000000000000000000000000000815260040161286792919061395f565b60405180910390fd5b600061287a611912565b905060005b8351811015612a8957600061289d8286611e8e90919063ffffffff16565b905060006128b48386611e8e90919063ffffffff16565b9050600073ffffffffffffffffffffffffffffffffffffffff168873ffffffffffffffffffffffffffffffffffffffff16146129e157600080600084815260200190815260200160002060008a73ffffffffffffffffffffffffffffffffffffffff1673ffffffffffffffffffffffffffffffffffffffff1681526020019081526020016000205490508181101561298957888183856040517f03dee4c50000000000000000000000000000000000000000000000000000000081526004016129809493929190613079565b60405180910390fd5b81810360008085815260200190815260200160002060008b73ffffffffffffffffffffffffffffffffffffffff1673ffffffffffffffffffffffffffffffffffffffff16815260200190815260200160002081905550505b600073ffffffffffffffffffffffffffffffffffffffff168773ffffffffffffffffffffffffffffffffffffffff1614612a7c578060008084815260200190815260200160002060008973ffffffffffffffffffffffffffffffffffffffff1673ffffffffffffffffffffffffffffffffffffffff1681526020019081526020016000206000828254612a7491906139b7565b925050819055505b505080600101905061287f565b506001835103612b48576000612aa9600085611e8e90919063ffffffff16565b90506000612ac1600085611e8e90919063ffffffff16565b90508573ffffffffffffffffffffffffffffffffffffffff168773ffffffffffffffffffffffffffffffffffffffff168473ffffffffffffffffffffffffffffffffffffffff167fc3d58168c5ae7397731d063d5bbf3d657854427343f4c083240f7aacaa2d0f628585604051612b3992919061395f565b60405180910390a45050612bc7565b8373ffffffffffffffffffffffffffffffffffffffff168573ffffffffffffffffffffffffffffffffffffffff168273ffffffffffffffffffffffffffffffffffffffff167f4a39dc06d4c0dbc64b70af90fd698a233a518aa5d07e595d983b8c0526c8f7fb8686604051612bbe929190614350565b60405180910390a45b5050505050565b5080546000825560030290600052602060002090810190612bef9190612bf2565b50565b5b80821115612c3c57600080820160006101000a81549073ffffffffffffffffffffffffffffffffffffffff02191690556001820160009055600282016000905550600301612bf3565b5090565b6000604051905090565b600080fd5b600080fd5b600073ffffffffffffffffffffffffffffffffffffffff82169050919050565b6000612c7f82612c54565b9050919050565b612c8f81612c74565b8114612c9a57600080fd5b50565b600081359050612cac81612c86565b92915050565b6000819050919050565b612cc581612cb2565b8114612cd057600080fd5b50565b600081359050612ce281612cbc565b92915050565b60008060408385031215612cff57612cfe612c4a565b5b6000612d0d85828601612c9d565b9250506020612d1e85828601612cd3565b9150509250929050565b612d3181612cb2565b82525050565b6000602082019050612d4c6000830184612d28565b92915050565b60007fffffffff0000000000000000000000000000000000000000000000000000000082169050919050565b612d8781612d52565b8114612d9257600080fd5b50565b600081359050612da481612d7e565b92915050565b600060208284031215612dc057612dbf612c4a565b5b6000612dce84828501612d95565b91505092915050565b60008115159050919050565b612dec81612dd7565b82525050565b6000602082019050612e076000830184612de3565b92915050565b600080fd5b600080fd5b6000601f19601f8301169050919050565b7f4e487b7100000000000000000000000000000000000000000000000000000000600052604160045260246000fd5b612e6082612e17565b810181811067ffffffffffffffff82111715612e7f57612e7e612e28565b5b80604052505050565b6000612e92612c40565b9050612e9e8282612e57565b919050565b600067ffffffffffffffff821115612ebe57612ebd612e28565b5b612ec782612e17565b9050602081019050919050565b82818337600083830152505050565b6000612ef6612ef184612ea3565b612e88565b905082815260208101848484011115612f1257612f11612e12565b5b612f1d848285612ed4565b509392505050565b600082601f830112612f3a57612f39612e0d565b5b8135612f4a848260208601612ee3565b91505092915050565b600060208284031215612f6957612f68612c4a565b5b600082013567ffffffffffffffff811115612f8757612f86612c4f565b5b612f9384828501612f25565b91505092915050565b600060208284031215612fb257612fb1612c4a565b5b6000612fc084828501612cd3565b91505092915050565b600081519050919050565b600082825260208201905092915050565b60005b83811015613003578082015181840152602081019050612fe8565b60008484015250505050565b600061301a82612fc9565b6130248185612fd4565b9350613034818560208601612fe5565b61303d81612e17565b840191505092915050565b60006020820190508181036000830152613062818461300f565b905092915050565b61307381612c74565b82525050565b600060808201905061308e600083018761306a565b61309b6020830186612d28565b6130a86040830185612d28565b6130b56060830184612d28565b95945050505050565b600067ffffffffffffffff8211156130d9576130d8612e28565b5b602082029050602081019050919050565b600080fd5b60006131026130fd846130be565b612e88565b90508083825260208201905060208402830185811115613125576131246130ea565b5b835b8181101561314e578061313a8882612cd3565b845260208401935050602081019050613127565b5050509392505050565b600082601f83011261316d5761316c612e0d565b5b813561317d8482602086016130ef565b91505092915050565b600067ffffffffffffffff8211156131a1576131a0612e28565b5b6131aa82612e17565b9050602081019050919050565b60006131ca6131c584613186565b612e88565b9050828152602081018484840111156131e6576131e5612e12565b5b6131f1848285612ed4565b509392505050565b600082601f83011261320e5761320d612e0d565b5b813561321e8482602086016131b7565b91505092915050565b600080600080600060a0868803121561324357613242612c4a565b5b600061325188828901612c9d565b955050602061326288828901612c9d565b945050604086013567ffffffffffffffff81111561328357613282612c4f565b5b61328f88828901613158565b935050606086013567ffffffffffffffff8111156132b0576132af612c4f565b5b6132bc88828901613158565b925050608086013567ffffffffffffffff8111156132dd576132dc612c4f565b5b6132e9888289016131f9565b9150509295509295909350565b600080fd5b60008083601f84011261331157613310612e0d565b5b8235905067ffffffffffffffff81111561332e5761332d6132f6565b5b60208301915083600182028301111561334a576133496130ea565b5b9250929050565b6000806020838503121561336857613367612c4a565b5b600083013567ffffffffffffffff81111561338657613385612c4f565b5b613392858286016132fb565b92509250509250929050565b600067ffffffffffffffff8211156133b9576133b8612e28565b5b602082029050602081019050919050565b60006133dd6133d88461339e565b612e88565b90508083825260208201905060208402830185811115613400576133ff6130ea565b5b835b8181101561342957806134158882612c9d565b845260208401935050602081019050613402565b5050509392505050565b600082601f83011261344857613447612e0d565b5b81356134588482602086016133ca565b91505092915050565b6000806040838503121561347857613477612c4a565b5b600083013567ffffffffffffffff81111561349657613495612c4f565b5b6134a285828601613433565b925050602083013567ffffffffffffffff8111156134c3576134c2612c4f565b5b6134cf85828601613158565b9150509250929050565b600081519050919050565b600082825260208201905092915050565b6000819050602082019050919050565b61350e81612cb2565b82525050565b60006135208383613505565b60208301905092915050565b6000602082019050919050565b6000613544826134d9565b61354e81856134e4565b9350613559836134f5565b8060005b8381101561358a5781516135718882613514565b975061357c8361352c565b92505060018101905061355d565b5085935050505092915050565b600060208201905081810360008301526135b18184613539565b905092915050565b600081519050919050565b600082825260208201905092915050565b60006135e0826135b9565b6135ea81856135c4565b93506135fa818560208601612fe5565b61360381612e17565b840191505092915050565b60006040820190506136236000830185612de3565b818103602083015261363581846135d5565b90509392505050565b6000806040838503121561365557613654612c4a565b5b600061366385828601612cd3565b925050602061367485828601612cd3565b9150509250929050565b6000606082019050613693600083018661306a565b6136a06020830185612d28565b6136ad6040830184612d28565b949350505050565b60006020820190506136ca600083018461306a565b92915050565b6136d981612dd7565b81146136e457600080fd5b50565b6000813590506136f6816136d0565b92915050565b6000806040838503121561371357613712612c4a565b5b600061372185828601612c9d565b9250506020613732858286016136e7565b9150509250929050565b6000806000806080858703121561375657613755612c4a565b5b600061376487828801612cd3565b945050602061377587828801612c9d565b935050604061378687828801612cd3565b925050606061379787828801612cd3565b91505092959194509250565b600080604083850312156137ba576137b9612c4a565b5b60006137c885828601612c9d565b92505060206137d985828601612c9d565b9150509250929050565b600080600080600060a086880312156137ff576137fe612c4a565b5b600061380d88828901612c9d565b955050602061381e88828901612c9d565b945050604061382f88828901612cd3565b935050606061384088828901612cd3565b925050608086013567ffffffffffffffff81111561386157613860612c4f565b5b61386d888289016131f9565b9150509295509295909350565b6000602082840312156138905761388f612c4a565b5b600061389e84828501612c9d565b91505092915050565b7f4e487b7100000000000000000000000000000000000000000000000000000000600052602260045260246000fd5b600060028204905060018216806138ee57607f821691505b602082108103613901576139006138a7565b5b50919050565b600060408201905061391c600083018561306a565b613929602083018461306a565b9392505050565b7f4e487b7100000000000000000000000000000000000000000000000000000000600052603260045260246000fd5b60006040820190506139746000830185612d28565b6139816020830184612d28565b9392505050565b7f4e487b7100000000000000000000000000000000000000000000000000000000600052601160045260246000fd5b60006139c282612cb2565b91506139cd83612cb2565b92508282019050808211156139e5576139e4613988565b5b92915050565b600080fd5b600080fd5b60008085851115613a0957613a086139eb565b5b83861115613a1a57613a196139f0565b5b6001850283019150848603905094509492505050565b6000613a3b82612cb2565b91507fffffffffffffffffffffffffffffffffffffffffffffffffffffffffffffffff8203613a6d57613a6c613988565b5b600182019050919050565b7f49736e27742072656e746564207468697320626f6f6b00000000000000000000600082015250565b6000613aae601683612fd4565b9150613ab982613a78565b602082019050919050565b60006020820190508181036000830152613add81613aa1565b9050919050565b7f43616e6e6f74207472616e7366657220746f2061646472657373203000000000600082015250565b6000613b1a601c83612fd4565b9150613b2582613ae4565b602082019050919050565b60006020820190508181036000830152613b4981613b0d565b9050919050565b7f53686f756c642062652072656e74657200000000000000000000000000000000600082015250565b6000613b86601083612fd4565b9150613b9182613b50565b602082019050919050565b60006020820190508181036000830152613bb581613b79565b9050919050565b7f496e76616c696420626f6f6b4964000000000000000000000000000000000000600082015250565b6000613bf2600e83612fd4565b9150613bfd82613bbc565b602082019050919050565b60006020820190508181036000830152613c2181613be5565b9050919050565b7f5468697320626f6f6b206973206e6f742065786973742e000000000000000000600082015250565b6000613c5e601783612fd4565b9150613c6982613c28565b602082019050919050565b60006020820190508181036000830152613c8d81613c51565b9050919050565b7f496e76616c69642063616c6c2062792061646472657373203000000000000000600082015250565b6000613cca601983612fd4565b9150613cd582613c94565b602082019050919050565b60006020820190508181036000830152613cf981613cbd565b9050919050565b7f496e76616c696420626f6f6b206964206f7220696e73756666696369656e742060008201527f62616c616e636500000000000000000000000000000000000000000000000000602082015250565b6000613d5c602783612fd4565b9150613d6782613d00565b604082019050919050565b60006020820190508181036000830152613d8b81613d4f565b9050919050565b7f416c72656164792072656e746564000000000000000000000000000000000000600082015250565b6000613dc8600e83612fd4565b9150613dd382613d92565b602082019050919050565b60006020820190508181036000830152613df781613dbb565b9050919050565b7f4e6f7420417070726f7665640000000000000000000000000000000000000000600082015250565b6000613e34600c83612fd4565b9150613e3f82613dfe565b602082019050919050565b60006020820190508181036000830152613e6381613e27565b9050919050565b7f496e76616c696420707269636500000000000000000000000000000000000000600082015250565b6000613ea0600d83612fd4565b9150613eab82613e6a565b602082019050919050565b60006020820190508181036000830152613ecf81613e93565b9050919050565b7f457863656564206d61782072656e742074696d652e0000000000000000000000600082015250565b6000613f0c601583612fd4565b9150613f1782613ed6565b602082019050919050565b60006020820190508181036000830152613f3b81613eff565b9050919050565b60008190508160005260206000209050919050565b60006020601f8301049050919050565b600082821b905092915050565b600060088302613fa47fffffffffffffffffffffffffffffffffffffffffffffffffffffffffffffffff82613f67565b613fae8683613f67565b95508019841693508086168417925050509392505050565b6000819050919050565b6000613feb613fe6613fe184612cb2565b613fc6565b612cb2565b9050919050565b6000819050919050565b61400583613fd0565b61401961401182613ff2565b848454613f74565b825550505050565b600090565b61402e614021565b614039818484613ffc565b505050565b5b8181101561405d57614052600082614026565b60018101905061403f565b5050565b601f8211156140a25761407381613f42565b61407c84613f57565b8101602085101561408b578190505b61409f61409785613f57565b83018261403e565b50505b505050565b600082821c905092915050565b60006140c5600019846008026140a7565b1980831691505092915050565b60006140de83836140b4565b9150826002028217905092915050565b6140f782612fc9565b67ffffffffffffffff8111156141105761410f612e28565b5b61411a82546138d6565b614125828285614061565b600060209050601f8311600181146141585760008415614146578287015190505b61415085826140d2565b8655506141b8565b601f19841661416686613f42565b60005b8281101561418e57848901518255600182019150602085019450602081019050614169565b868310156141ab57848901516141a7601f8916826140b4565b8355505b6001600288020188555050505b505050505050565b60006141cb82612cb2565b91506141d683612cb2565b92508282039050818111156141ee576141ed613988565b5b92915050565b7f4e487b7100000000000000000000000000000000000000000000000000000000600052603160045260246000fd5b600061422e82612cb2565b91506000820361424157614240613988565b5b600182039050919050565b600060a082019050614261600083018861306a565b61426e602083018761306a565b61427b6040830186612d28565b6142886060830185612d28565b818103608083015261429a81846135d5565b90509695505050505050565b6000815190506142b581612d7e565b92915050565b6000602082840312156142d1576142d0612c4a565b5b60006142df848285016142a6565b91505092915050565b600060a0820190506142fd600083018861306a565b61430a602083018761306a565b818103604083015261431c8186613539565b905081810360608301526143308185613539565b9050818103608083015261434481846135d5565b90509695505050505050565b6000604082019050818103600083015261436a8185613539565b9050818103602083015261437e8184613539565b9050939250505056fea26469706673582212207322aa0017f9e4f1bf20aee6cc8cc39ef0f1611e9e626d49a530a9e9feb240ae64736f6c63430008180033",
  "linkReferences": {},
  "deployedLinkReferences": {}
}